:020000040000FA
:100000000C9468000C9490000C9490000C94900058
:100010000C9490000C9490000C9490000C94900020
:100020000C9490000C9490000C9490000C94900010
:100030000C9490000C94ED0E0C9490000C94900095
:100040000C944B0E0C9490000C94BB0E0C94950EDB
:100050000C9490000C9490000C9490000C949000E0
:100060000C94140F0C949000000000002400270052
:100070002A0000000000250028002B0000000008D6
:10008000000201000003040700000000000000005F
:10009000000000002300260029001F1C1F1E1F1E39
:1000A0001F1F1E1F1E040404040404040402020291
:1000B00002020203030303030301020408102040A9
:1000C00080010204081020010204081020003310EF
:1000D00011241FBECFEFD8E0DEBFCDBF25E0ACE3DB
:1000E000B3E001C01D92AE32B207E1F713E0A0E029
:1000F000B1E0EAECF2E502C005900D92AC33B10735
:10010000D9F710E0C8E6D0E004C02197FE010E94B4
:100110006B27C736D107C9F70E94ED100C946329ED
:100120000C94000008950895EF92FF920F931F938F
:100130006091FC043091FB04432F50E02091FD04BA
:10014000822F90E0EAE9F0E021E0261730F4749184
:10015000870F911D2F5F3196F8CF633018F0337001
:1001600009F401966DE671E0469F9001479F300DBE
:10017000569F300D1124215031094D5F5F4F569528
:10018000479556954795240F351F280F391FA8E12D
:10019000B0E00E948D262091FE047B018C01E20ECE
:1001A000F11C011D111DA8019701ACE3B0E00E94F4
:1001B0004B262091FF047B018C01E20EF11C011DF6
:1001C000111DA80197010E944B26AB01BC01909123
:1001D0000005892F90E0B0E0A0E080589C4BA24938
:1001E000B74C8A019B01080F191F2A1F3B1FC90129
:1001F000B8011F910F91FF90EF9008958F929F92F9
:10020000AF92BF92CF92DF92EF92FF92CF93DF93A4
:10021000A091170530E081113A2F8091180590E0E8
:10022000880F991FAC0140575F4FC0901D05D090BB
:100230001E05E0901F05F090200560E070E0CB0106
:10024000FA01C591D49128812A2323130FC04B01B1
:100250005C012FEF821A920AA20AB20A6C157D0580
:100260008E059F0570F060E070E0CB01DF91CF91CB
:10027000FF90EF90DF90CF90BF90AF909F908F90C6
:100280000895C501B401DCCF833081F028F48130BA
:1002900099F08230A9F008958730A9F08830C9F02C
:1002A0008430B1F4809180008F7D03C08091800004
:1002B0008F7780938000089584B58F7784BD0895EB
:1002C00084B58F7DFBCF8091B0008F778093B00095
:1002D00008958091B0008F7DF9CFCF93DF93282FC1
:1002E00030E0F901E458FF4F8491F901E754FF4FE2
:1002F000D491F901EB55FF4FC491CC23A1F08111AA
:100300000E944401EC2FF0E0EE0FFF1FE057FF4F7B
:10031000A591B491EC91ED2381E090E009F480E0A7
:10032000DF91CF91089580E090E0FACF1F93CF93B3
:10033000DF93282F30E0F901E458FF4F8491F90151
:10034000E754FF4FD491F901EB55FF4FC491CC23F3
:10035000A9F0162F81110E944401EC2FF0E0EE0F5E
:10036000FF1FEE58FF4FA591B4918FB7F894EC9111
:10037000111108C0D095DE23DC938FBFDF91CF91A0
:100380001F910895DE2BF8CFCF93DF9390E0FC010F
:10039000E754FF4F24918B559F4FFC018491882394
:1003A000D1F090E0880F991FFC01E859FF4FA5910B
:1003B000B491FC01EE58FF4FC591D491623071F4B5
:1003C0009FB7F8943C91822F809583238C93E8818A
:1003D0002E2B28839FBFDF91CF9108958FB7F8947C
:1003E000EC912E2B2C938FBFF6CF3FB7F8948091D2
:1003F000CC039091CD03A091CE03B091CF0326B54D
:10040000A89B05C02F3F19F00196A11DB11D3FBF4C
:10041000BA2FA92F982F8827BC01CD01620F711D1B
:10042000811D911D42E0660F771F881F991F4A9515
:10043000D1F708958F929F92AF92BF92CF92DF92A1
:10044000EF92FF926B017C010E94F5014B015C0170
:10045000C114D104E104F104B9F00E94F501681956
:1004600079098A099B09683E73408105910580F3EB
:1004700021E0C21AD108E108F10888EE880E83E075
:10048000981EA11CB11CE4CFFF90EF90DF90CF909D
:10049000BF90AF909F908F90089561E08091250567
:1004A0000E94960164E670E080E090E00E941A02EB
:1004B00060E0809125050E94960164E670E080E08E
:1004C00090E00C941A02CF92DF92EF92FF920F937A
:1004D0001F93CF93DF93CDB7DEB7C054D1400FB693
:1004E000F894DEBF0FBECDBF2FB7F8948091D00334
:1004F0009091D103A091D203B091D3032FBF40912B
:10050000190550911A0560911B0570911C058C010D
:100510009D01041B150B260B370BB901A801403DAB
:1005200057406105710590F480912105C05CDE4F54
:100530000FB6F894DEBF0FBECDBFDF91CF911F91F4
:100540000F91FF90EF90DF90CF9008958093190561
:1005500090931A05A0931B05B0931C0510921405E7
:1005600010921305109212051092110510921005A9
:1005700061E0809115050E9496016AEF70E080E0CD
:1005800090E00E941A0261E0809115050E94C4016A
:1005900060E0809115050E94960164E170E080E0C2
:1005A00090E00E941A02F89461E0809115050E9483
:1005B00096018BE990E00197F1F762E080911505D3
:1005C0000E94C40183E290E00197F1F780E00E946D
:1005D000FE00672B682B692B29F410922105789473
:1005E00080E0A4CF81E00E94FE00672B682B692B7E
:1005F000A1F38E010F5F1F4F6E012FEBC21A2EEF7A
:10060000D20A780180E00E94FE00F70160837183C6
:100610008283938381E00E94FE00F70164837583E7
:1006200086839783F8E0EF0EF11CEC14FD0451F77C
:10063000789430E020E0F801C080D180E280F3803F
:100640004481558166817781C114D104E104F104AC
:1006500029F0411551056105710519F41092210524
:10066000BFCFF90183E0F595E7958A95E1F7E05F63
:10067000FA4F8081880FC416D506E606F70610F1FA
:1006800080832F5F3F4F085F1F4F2832310599F657
:10069000409114052091100580911105280F3327F2
:1006A000331F80911205280F311D80911305820F91
:1006B000932F911D99274817190681F681E08093A1
:1006C000210534CF8160DCCFDC01ED91FC910190FC
:1006D000F081E02D0994AF92BF92CF92DF92EF921A
:1006E000FF920F931F93CF93DF936C017B018B01DC
:1006F000040F151FEB015E01AE18BF08C017D1072C
:1007000059F06991D601ED91FC910190F081E02DB5
:10071000C6010995892B79F7C501DF91CF911F910A
:100720000F91FF90EF90DF90CF90BF90AF90089522
:10073000FC01538D448D252F30E0842F90E0821BE7
:10074000930B541710F0CF96089501970895FC016C
:10075000918D828D981761F0A28DAE0FBF2FB11DC4
:100760005D968C91928D9F5F9F73928F90E008951C
:100770008FEF9FEF0895FC01918D828D981731F0D6
:10078000828DE80FF11D858D90E008958FEF9FEF2A
:100790000895FC01918D228D892F90E0805C9F4F00
:1007A000821B91098F73992708958CE494E00E942D
:1007B000C90321E0892B09F420E0822F089580E00D
:1007C00090E0892B29F00E94D50381110C94000040
:1007D0000895FC01A48DA80FB92FB11DA35ABF4FD6
:1007E0002C91848D90E001968F739927848FA68930
:1007F000B7892C93A089B1898C91837080648C9384
:10080000938D848D981306C00288F389E02D808132
:100810008F7D80830895EF92FF920F931F93CF9364
:10082000DF93EC0181E0888F9B8D8C8D98131AC02B
:10083000E889F989808185FF15C09FB7F894EE8912
:10084000FF896083E889F98980818370806480836F
:100850009FBF81E090E0DF91CF911F910F91FF90BA
:10086000EF900895F62E0B8D10E00F5F1F4F0F7362
:100870001127E02E8C8D8E110CC00FB607FCFACF1D
:10088000E889F989808185FFF5CFCE010E94E903CF
:10089000F1CFEB8DEC0FFD2FF11DE35AFF4FF082EE
:1008A0009FB7F8940B8FEA89FB8980818062CFCF54
:1008B000CF93DF93EC01888D8823B9F0AA89BB8997
:1008C000E889F9898C9185FD03C0808186FD0DC082
:1008D0000FB607FCF7CF8C9185FFF2CF808185FFA3
:1008E000EDCFCE010E94E903E9CFDF91CF910895CA
:1008F00008958F929F92AF92BF92CF92DF92EF9224
:10090000FF92CF93DF93EC016A017B0180E8C81A64
:1009100083E4D80A8DE6E80A88E3F80A8CE3882E97
:10092000912CA12CB12CC701B601A50194010E9404
:1009300049276D83CA01B901A50194010E94492785
:100940006C83C701B60120E13EE040E050E00E9428
:100950004927CA01B90128E130E040E050E00E9497
:1009600049276B83C701B60120E831E541E050E03B
:100970000E944927188263E97EEF8881982F93703F
:1009800041E050E011F050E040E0FA01E359FE4F41
:100990002E173F0740F0FB01E41BF50B2E0F3F1F06
:1009A0008F5F8883EACF81E0898389818C30A0F4CE
:1009B000482F4150550BFA01E656FF4FE491911133
:1009C00003C0823009F4EF5FF0E02E173F0720F0FC
:1009D0002E1B3F0B8F5FE8CF2F5F2A83DF91CF91D4
:1009E000FF90EF90DF90CF90BF90AF909F908F904F
:1009F000089520915D03260F3327331F21323105DF
:100A0000ECF420912204FC0190E080E0243069F0B5
:100A100082E00895A0915D032191AC01435C5C4F9D
:100A2000A40FB52FB11D2C930196861798F38091D2
:100A30005D03680F60935D0380E0089581E0089591
:100A40001092220481E0809321041092FC0361E063
:100A500082E10E94960161E083E10E949601E9EB48
:100A6000F0E080818E7F808380818D7F808388E429
:100A70008093B80085E48093BC0008951092FB0336
:100A80001092FA031092290410924B040E94200540
:100A900082E990E09093F9038093F80383E990E072
:100AA0009093F7038093F6030895CF93DF9391E03B
:100AB00090933C038823B9F0C091B800D091BA005C
:100AC0008091BC008A7B8093BC0060E082E10E9440
:100AD000960160E083E10E9496010E942005D09378
:100AE000BA00C093B800DF91CF9108958F929F9282
:100AF000AF92BF92CF92DF92EF92FF920F931F932C
:100B0000CF93DF93D0914B04D13208F0D7C0182F88
:100B1000C0914A040E94F5016B017C01809122047E
:100B200081116BC082E080932204109321048FEF27
:100B30008093200410921F04D0931E04AAE2B4E014
:100B4000EEEFF3E080E0D81391C01092FD038091A6
:100B5000FD03CC0FC82BC093FD038091FC038130B3
:100B600009F088C01092FC030E94F5016B017C0122
:100B70008091FD038093BB00809124049091250413
:100B8000A0912604B0912704892B8A2B8B2BA1F0EE
:100B90000E94F5010091240410912504209126045F
:100BA000309127046C197D098E099F0906171707D4
:100BB0002807390708F442C08091BC0083FDD8CFD4
:100BC00085EC8093BC000E94F5016B017C01809153
:100BD0002204823009F450C0809120048F3F09F430
:100BE0006FC080912004803209F46CC08091200491
:100BF000803309F469C084E026C080912404909178
:100C00002504A0912604B0912704892B8A2B8B2BD5
:100C100009F484CF0E94F50180902404909025046B
:100C2000A0902604B09027046C197D098E099F09B5
:100C300086169706A806B90608F070CF809123049F
:100C40000E94550585E01092290410924B041092E1
:100C50002804DF91CF911F910F91FF90EF90DF90CB
:100C6000CF90BF90AF909F908F9008959D9191935A
:100C70008F5F69CF85EEA5CF8091240490912504E4
:100C8000A0912604B0912704892B8A2B8B2B09F481
:100C90009ECF0E94F501009124041091250420911B
:100CA0002604309127046C197D098E099F090617C7
:100CB00017072807390708F08ACFC0CF81E0C3CFD4
:100CC00080E0C1CF82E0BFCF83E0BDCFCF93DF9381
:100CD000EC018B818823A1F0888191E09093280416
:100CE00080934A041092290410924B0481E00E94E0
:100CF000760591E0811190E0892FDF91CF910895E1
:100D00000E943E0581E08B83CE010E946606982FEB
:100D10008111E2CFF1CF0895E091FB038091FA03B6
:100D2000E81730F4F0E0EC52FC4F808190E0089539
:100D30008FEF9FEF08959091FB038091FA032FEFBF
:100D40003FEF981748F4E92FF0E0EC52FC4F208178
:100D500030E09F5F9093FB03C90108958091FA03EF
:100D60009091FB03891B990B0895CF92DF92EF922C
:100D7000FF920F931F93CF93DF937C01CB018A01E6
:100D800020912804222389F0EB016B01C40ED51EAB
:100D9000CC15DD0569F06991D701ED91FC910190C9
:100DA000F081E02DC7010995F3CF642F0E94F9046B
:100DB000C801DF91CF911F910F91FF90EF90DF90CD
:100DC000CF900895CF93DF931F92CDB7DEB769839D
:100DD000209128042223F9F020914B04203258F06E
:100DE00021E030E0FC013383228390E080E00F902B
:100DF000DF91CF91089580912904E82FF0E0E65D1E
:100E0000FB4F998190838F5F8093290480934B04DB
:100E100081E090E0ECCF61E0CE0101960E94F90400
:100E2000F7CFFC01248131E03093280420934A0459
:100E30001092290410924B048385682B89EE94E06C
:100E40000E94E20681E00C947605089590E080E02F
:100E50000895CF92DF92EF92FF92CF930E946302A8
:100E6000882341F0809116058B3049F018F08551A8
:100E7000823030F160E070E080EC9FE707C0609165
:100E8000120570E090E080E00E94162560938103D7
:100E90007093820380938303909384030E94630280
:100EA000882349F0809116058B3081F120F085511F
:100EB000823008F440C060E070E080EC9FE72DC015
:100EC000C09112056C2F6F7770E090E080E00E9477
:100ED000182520E030E040E853E40E9477256B01BC
:100EE0007C016091130570E090E080E00E9418257D
:100EF000A70196010E949D262DEC3CEC4CEC5DE395
:100F00000E947725C7FFC2CF9058C0CF60911005CF
:100F100070E090E080E00E94162560938503709356
:100F200086038093870390938803CF91FF90EF907F
:100F3000DF90CF9008956091100570E090E080E020
:100F40000E94162520E030E040E853E40E94772517
:100F50006B017C016091110570E090E080E00E94DF
:100F60001825A70196010E949D262DEC3CEC4CEC27
:100F70005DE30E947725D1CF1092CA03809193033D
:100F8000882321F0815080939303089580919203E8
:100F9000882329F08150809392038BE3F4CF8091D2
:100FA0009103882339F08150809391038BE38093E0
:100FB0009203E9CF81E08093CA03089560E0FC01C9
:100FC00080810C949601FC0180810E946D0121E0DA
:100FD000892B09F420E0822F0895CF93DF93EC0151
:100FE00088810E946D01892B71F464E670E080E0D5
:100FF00090E00E941A0288810E946D01892B29F0DD
:10100000DF91CF91089580E0FBCF81E0F9CFFC0123
:1010100080810E946D0121E0892B09F020E0822F60
:1010200008952F923F924F925F926F927F928F928C
:101030009F92AF92BF92CF92DF92EF92FF920F9367
:101040001F93CF93DF9300D000D000D01F92CDB775
:10105000DEB78C011982A090F403B090F503D5019E
:1010600014968D919C911597892B09F427C111969F
:101070008D919C9112972C9131E03093280420930C
:101080004A041092290410924B04DC01ED91FC916A
:101090000280F381E02D41E050E0BE016F5F7F4FA1
:1010A0000995019709F00AC180E00E947605811137
:1010B00005C1D12CC12C87E0282E312CF50184816B
:1010C00095817101EC18FD088E159F0508F47C01CF
:1010D000D5018C900E94F5012B013C0180912204E6
:1010E000811175C09E2CB0E2BE1510F4B0E29B2EAB
:1010F000E1E0E093220421E0C1018E199F09C816A6
:10110000D90608F420E020932104FFEFF093200497
:1011100010921F048FEF890D80931E0481E080934D
:10112000FD038091FD03880C882A8092FD03809145
:10113000FC03813009F095C01092FC030E94F50178
:101140002B013C018091FD038093BB00809124041E
:1011500090912504A0912604B0912704892B8A2B15
:101160008B2BA1F00E94F5012091240430912504DD
:10117000409126045091270464197509860997093E
:10118000261737074807590708F442C08091BC006A
:1011900083FDD8CFA5ECA093BC000E94F5012B01E4
:1011A0003C0180912204813009F45FC080911F04CA
:1011B000891510F490901F04AEEFB3E0E4EDF3E076
:1011C00080E0891551F19D9191938F5FFACF8091C5
:1011D000240490912504A0912604B0912704892B22
:1011E0008A2B8B2B09F47ACF0E94F50120912404DD
:1011F0003091250440912604509127046419750903
:1012000086099709261737074807590708F066CF58
:10121000809123040E945505912C1092FB0390921B
:10122000FA039E141F0409F049C088248394912C6A
:101230008C0E9D1E8C0C9D1C3401C40186199709CF
:101240008E159F05A0F5F50181819281DC01ED915C
:10125000FC910284F385E02D0995F40181934F01FF
:10126000ECCFB5EEB093BC0098CF80912404909160
:101270002504A0912604B0912704892B8A2B8B2B5F
:1012800009F48FCF0E94F5012091240430912504A8
:10129000409126045091270464197509860997091D
:1012A000261737074807590708F07BCFB1CFCE0C78
:1012B000DF1CF7E0CF16D10408F400CFE981EF7707
:1012C000FA81FB804D815E818F81282F30E094E090
:1012D000359527959A95E1F7922F990F990F291B2C
:1012E000220F280FD8012C93852F90E024E09595AC
:1012F00087952A95E1F7982F990F990F891B880FE9
:10130000850F11968C931197642F70E034E07595DA
:1013100067953A95E1F7862F880F880F681B660F4F
:10132000640F12966C9312974F2D50E064E0559520
:1013300047956A95E1F7842F880F880F481B440F63
:101340004F0D13964C9313972F2F30E074E0359583
:1013500027957A95E1F7822F880F880F281B220F97
:101360002F0F14962C9314978E2F90E0F4E0959500
:101370008795FA95E1F7982F990F990F891B880F98
:101380008E0F15968C93C80127960FB6F894DEBF82
:101390000FBECDBFDF91CF911F910F91FF90EF90C6
:1013A000DF90CF90BF90AF909F908F907F906F9085
:1013B0005F904F903F902F9008950F931F93CF937E
:1013C0008C01C62F0E9411076C2F6460C8010E9417
:1013D00011076C2F6B7FC8010E94110783EC90E00E
:1013E0000197F1F7CF911F910F9108950F931F93DC
:1013F000CF938C01C62F607F61600E94DD0980E180
:10140000C89FB00111246160C8010E94DD0981E01C
:1014100090E0CF911F910F910895CF93C82F682F1F
:10142000607F84E095E00E94DD0980E1C89FB00103
:10143000112484E095E0CF910C94DD0981E00E94B5
:101440000D0A8BE39FE10197F1F70895CF93DF93A6
:10145000CDB7DEB728970FB6F894DEBF0FBECDBF6D
:1014600098E0E0E1F1E0DE01119601900D929A958D
:10147000E1F790910C05961710F46FEF690F70E08B
:10148000660F771F21E030E02C0F3D1F620F731FA6
:10149000FB019081890F806828960FB6F894DEBF13
:1014A0000FBECDBFDF91CF910C940D0A9F92AF92EA
:1014B000BF92CF92DF92EF92FF920F931F93CF9341
:1014C000DF935C017B018B01D0E0C0E0F8019190DB
:1014D0008F016501CC0EDD1EC6010E9435269816CF
:1014E00021F0692DC6010E943D262196C430D10508
:1014F00069F7C701DF91CF911F910F91FF90EF9096
:10150000DF90CF90BF90AF909F900895CF92DF92E1
:10151000EF92FF920F931F93CF93DF93EB017B0129
:1015200024E0E20EF11C8B016C01C61AD70AC60139
:10153000800F911F0E943526F80181938F01EE15CF
:10154000FF05A9F7CE01DF91CF911F910F91FF9079
:10155000EF90DF90CF900895EF92FF920F931F933B
:10156000CF93DF9364E170E080E090E00E941A0284
:1015700000918F031091900381E0E82E85E0F82E12
:10158000CBEFD4E00B5F1440C8018C0F9D1F0E946D
:1015900035268993EC16FD06B9F764E170E080E02A
:1015A00090E00E941A0266EA73E08091AA0390918B
:1015B000AB030E94860A64E170E080E090E00E9444
:1015C0001A0262EB73E08091B6039091B7030E9418
:1015D000860A64E170E080E090E00E941A026EEBFF
:1015E00073E08091C2039091C3030E94860A64E174
:1015F00070E080E090E00E941A026CEA73E0809153
:10160000B0039091B1030E94860A64E170E080E02B
:1016100090E00E941A0268EB73E08091BC03909105
:10162000BD030E94860A64E170E080E090E00E94C1
:101630001A0264EC73E08091C8039091C9030E9480
:10164000860A64E170E080E090E00E941A026AE994
:1016500073E080919E0390919F030E94860A64E14B
:1016600070E080E090E00E941A0264E973E08091EB
:101670009803909199030E94860A64E170E080E0EB
:1016800090E00E941A0260EA73E08091A4039091B6
:10169000A5030E94860A64E170E080E090E00E9469
:1016A0001A0280918D0390918E030E943526682F37
:1016B00070E090E080E00E941625609389037093AB
:1016C0008A0380938B0390938C0364E170E080E045
:1016D00090E00E941A0260919403709195038091AA
:1016E0009603909197030E941027609391031092A4
:1016F000920310929303DF91CF911F910F91FF906E
:10170000EF900895FB0101900020E9F73197AF01B8
:10171000461B570BDC01ED91FC910280F381E02D1B
:1017200009948F929F92AF92BF92EF92FF920F9384
:101730001F93CF93DF93CDB7DEB7A1970FB6F89481
:10174000DEBF0FBECDBF7C01FA01CB0119A2223052
:1017500008F42AE08E010F5D1F4F822E912CB12CD0
:10176000A12CBF01A50194010E944927F901CA01DA
:101770006A300CF5605DD8016E938D01232B242B0C
:10178000252B79F790E080E0109721F0BD01C7018B
:101790000E94820BA1960FB6F894DEBF0FBECDBF9C
:1017A000DF91CF911F910F91FF90EF90BF90AF907D
:1017B0009F908F900895695CDECFCF92DF92EF9279
:1017C000FF920F931F93CF93DF936B01770FEE0878
:1017D000FF08F7FE1BC0EC016DE20E9464038C0160
:1017E00044275527BA014C195D096E097F092AE083
:1017F000CE010E94910B800F911FDF91CF911F911D
:101800000F91FF90EF90DF90CF9008952AE0B701FD
:10181000A601DF91CF911F910F91FF90EF90DF9084
:10182000CF900C94910BBC0184E095E00C94820B5A
:101830008F929F92AF92BF92CF92DF92EF92FF92E0
:101840000F931F93CF93DF93CDB7DEB72C970FB6CF
:10185000F894DEBF0FBECDBF01E010E0B80190E00C
:1018600080E00E9416256B017C012091A00330913D
:10187000A1034091A2035091A3030E9411251816C1
:101880000CF4B1C08091FB04843608F0A0C00E9423
:101890009400AB01BC01CE0101960E9479049091A5
:1018A000FB048981981393C09091FC048A8198135A
:1018B0008EC09091FD048B81981389C09091FE0495
:1018C0008C81981384C09091FF048D8198137FC000
:1018D000909100058E8198137AC00E949400802E0A
:1018E000002E000C9908AA08BB08AB01BC01480DEA
:1018F000591D6A1D7B1DCE0107960E947904CE01F9
:1019000001960E9411082F8130E02053384F8981C1
:1019100090E08053984F2817390709F058C08090FD
:10192000A0039090A103A090A203B090A303988578
:101930008A8198134CC099858B81981348C09A85E9
:101940008C81981344C09B858D81981340C09C85E1
:101950008E8198133CC020E030E0A901609189039A
:1019600070918A0380918B0390918C030E943F2792
:1019700018166CF5A7019601C501B4010E949C26BA
:101980006B017C0120E030E0A9010E94112587FD58
:1019900021C0C0928903D0928A03E0928B03F09217
:1019A0008C036091890370918A0380918B039091DD
:1019B0008C030E94092780918D0390918E030E94D1
:1019C0003D266AE070E080E090E00E941A020F5F1E
:1019D0001F4F44CF1092890310928A0310928B03F9
:1019E00010928C03DECF20E030E0A90160918903E2
:1019F00070918A0380918B0390918C030E94112532
:101A0000811129C063E00E94260A8DE591E00E94C1
:101A1000130C6AE070E080E090E00E941A0263E03C
:101A200080E00E94260A88E491E00E94130C64EF93
:101A300071E080E090E00E941A0263E080E00E9482
:101A4000260A8CE591E00E94130C6AE070E080E0C9
:101A500090E00E941A022C960FB6F894DEBF0FBEDB
:101A6000CDBFDF91CF911F910F91FF90EF90DF904D
:101A7000CF90BF90AF909F908F9008954F925F92BC
:101A80006F927F928F929F92AF92BF92CF92DF928E
:101A9000EF92FF926B017C01AC019B010E944427F5
:101AA00061E771E0811126C046015701E894B7F85B
:101AB0002FEF3FEF4FE75FE7C501B4010E944427D6
:101AC00081110CC02FEF3FEF4FE75FE7C501B40175
:101AD0000E94112565E771E0181664F02FEF3FEFC3
:101AE0004FE75FE4C701B6010E943F27181694F440
:101AF00069E771E084E095E0FF90EF90DF90CF9090
:101B0000BF90AF909F908F907F906F905F904F901D
:101B10000C94820B2FEF3FEF4FE75FECC701B6014C
:101B20000E94112587FDE4CF20E030E0A901C70124
:101B3000B6010E941125B12CA12C87FF0AC06DE2CD
:101B400084E095E00E9464035C01F7FAF094F7F8F2
:101B5000F0942AE037ED43EA5BE3C701B6010E9447
:101B60009D262B013C010E9410276B017C010E94E5
:101B700016259B01AC01C301B2010E949C262B01DA
:101B80003C012AE0B701A60184E095E00E94910B98
:101B90007C01EA0CFB1C6EE284E095E00E94640389
:101BA000E80EF91E20E030E040E251E4C301B2014A
:101BB0000E9477252B013C010E9410274B01B12C7C
:101BC000A12C2AE0B501A40184E095E00E94910BCC
:101BD000E80EF91EC501B4010E9416259B01AC0157
:101BE000C301B2010E949C2620E030E040E251E4B3
:101BF0000E9477250E941027AB0170E060E02AE088
:101C000084E095E00E94910B8E0D9F1DFF90EF9058
:101C1000DF90CF90BF90AF909F908F907F906F900C
:101C20005F904F90089585ED8093BC0080912404CF
:101C300090912504A0912604B09127040796A11D38
:101C4000B11D23E0B695A795979587952A95D1F76D
:101C50002091BC0024FD03C01092220408954091FD
:101C60002404509125046091260470912704452B8B
:101C7000462B472B69F30097A105B10541F02AE2F5
:101C80002A95F1F700C00197A109B109E1CF809130
:101C900023040C9455051F920F920FB60F92112436
:101CA0002F933F938F939F93AF93BF938091D003D4
:101CB0009091D103A091D203B091D3033091CB0383
:101CC00023E0230F2D3758F50196A11DB11D209358
:101CD000CB038093D0039093D103A093D203B0930E
:101CE000D3038091CC039091CD03A091CE03B0910A
:101CF000CF030196A11DB11D8093CC039093CD031A
:101D0000A093CE03B093CF03BF91AF919F918F91DA
:101D10003F912F910F900FBE0F901F90189526E8BE
:101D2000230F0296A11DB11DD2CF1F920F920FB6A5
:101D30000F9211242F933F934F935F936F937F9351
:101D40008F939F93AF93BF93EF93FF938CE494E0B3
:101D50000E94E903FF91EF91BF91AF919F918F9105
:101D60007F916F915F914F913F912F910F900FBE97
:101D70000F901F9018951F920F920FB60F9211247B
:101D80002F938F939F93EF93FF93E0915C04F091D7
:101D90005D048081E0916204F091630482FD1BC0C8
:101DA0009081809165048F5F8F7320916604821704
:101DB00041F0E0916504F0E0E45BFB4F958F809388
:101DC0006504FF91EF919F918F912F910F900FBE1E
:101DD0000F901F9018958081F4CF1F920F920FB62D
:101DE0000F9211242F933F934F935F936F937F93A1
:101DF0008F939F93AF93BF93EF93FF93E09108016D
:101E0000F09109010995FF91EF91BF91AF919F91D9
:101E10008F917F916F915F914F913F912F910F9093
:101E20000FBE0F901F9018951F920F920FB60F9232
:101E300011242F933F934F935F936F937F938F93CF
:101E40009F93AF93BF93EF93FF938091B900887FE7
:101E5000803609F44AC0F0F5883209F4A7C018F5B5
:101E6000803109F49BC0B8F4882309F4F9C08830A4
:101E700009F494C0FF91EF91BF91AF919F918F9121
:101E80007F916F915F914F913F912F910F900FBE76
:101E90000F901F901895883109F488C0803251F74F
:101EA0008093200414C0803409F49DC040F4803332
:101EB000B9F38833F9F68093200485ECB0C08035FF
:101EC00009F485C0883509F496C0883499F60E94D3
:101ED000130ED0CF883909F48CC038F5883729F033
:101EE00050F4883611F0803729F683E0809322047D
:101EF00010927F0357C0883809F47BC0803919F0ED
:101F0000803809F0B7CF80917F03803208F071C02C
:101F1000E0917F0381E08E0F80937F038091BB006F
:101F2000F0E0E15AFC4F80833DC0803B39F0E0F4A3
:101F3000803A09F479C0883A09F09CCF84E0809314
:101F4000220410925E0310925D03E091F803F09179
:101F5000F903099580915D0381110FC081E08093A1
:101F60005D0310923D0309C0803C09F4A6CF883C74
:101F700009F4A3CF883B09F07DCFE0915E0381E0B7
:101F80008E0F80935E03F0E0E35CFC4F80818093D2
:101F9000BB0090915E0380915D0329C08091FD0399
:101FA0008093BB0085EC8093BC0064CF90911F04AC
:101FB00080911E04981758F5E0911F0481E08E0F60
:101FC00080931F04F0E0E250FC4F8081E9CFE09164
:101FD0001F0481E08E0F80931F048091BB00F0E00E
:101FE000E250FC4F808390911F0480911E0498174B
:101FF000C8F285E8D8CFE0911F0481E08E0F80936E
:102000001F048091BB00F0E0E250FC4F8083809180
:10201000210481115CCF81E08093FC0384EA8093EA
:10202000BC001092220426CF85EC8093BC00109255
:10203000220480917F03803230F4E0917F03F0E04E
:10204000E15AFC4F108260917F0370E0E091F6034B
:10205000F091F7038FE593E0099510927F030ACF83
:102060001092200434CFCF93DF93ECE4F4E013829A
:10207000128288EE93E0A0E0B0E084839583A6838B
:10208000B7832CE131E03183208325EC30E03587C4
:10209000248724EC30E03787268720EC30E0318B32
:1020A000208B21EC30E0338B228B22EC30E0358B1F
:1020B000248B26EC30E0378B268B118E128E138EFC
:1020C000148EE9EEF4E01382128284839583A68352
:1020D000B7838EE291E091838083C6E2D5E089E008
:1020E00088838AE0898361E089E00E94C40161E01D
:1020F00089810E94C40160E088810E94960160E0AD
:1021000089810E9496018BE08093250561E00E9401
:10211000C40188E08093240561E00E94C40187E047
:102120008093230561E00E94C40186E0809322052C
:1021300061E00E94C401A0E1B5E085E015968C93B2
:10214000159786E116968C931697EEEBF0E0E491E6
:102150001796EC931797EAEAF0E0E4911896EC935F
:10216000189740E85EE360E070E01D964D935D9344
:102170006D937C935097E4E0F5E01382128280E443
:1021800091E09183808387E2848384E1818784E086
:10219000828713868093030562E00E94C40183E076
:1021A0008093020562E00E94C40182E080930105F1
:1021B00062E00E94C40140E853E46DE678E38BEFEF
:1021C00094E00E94790440E853E46DE678E385EFFB
:1021D00094E0DF91CF910C947904CF93DF93CDB746
:1021E000DEB72A970FB6F894DEBF0FBECDBF789446
:1021F00084B5826084BD84B5816084BD85B582600C
:1022000085BD85B5816085BD80916E0081608093BC
:102210006E00109281008091810082608093810025
:102220008091810081608093810080918000816035
:10223000809380008091B10084608093B100809190
:10224000B00081608093B00080917A0084608093B8
:102250007A0080917A00826080937A0080917A007F
:10226000816080937A0080917A00806880937A0000
:102270001092C1008091F4039091F503009711F042
:102280000E940D2886E090E00E9471278C0188E66C
:10229000F801808389EE94E092838183138280E247
:1022A00090E0958384831093F5030093F4030E94D8
:1022B0003E0581E0F8018383C8010E94660662E062
:1022C000809115050E94C40180E398EFAFEFBFEF46
:1022D0008093190590931A05A0931B05B0931C05D4
:1022E000E0915C04F0915D0482E08083E091580409
:1022F000F09159041082E0915A04F0915B048FEC44
:10230000808310926404E0916004F091610486E09F
:102310008083E0915E04F0915F048081806180831E
:10232000E0915E04F0915F04808188608083E09199
:102330005E04F0915F04808180688083E0915E0498
:10234000F0915F0480818F7D80830E943E05109212
:10235000090580910E05823018F098E090930905E8
:1023600080930C0562E370E080E090E00E941A0226
:1023700060910F0584E095E00E94110768EE73E01C
:1023800080E090E00E941A0260E384E095E00E9401
:10239000DD090BE416E4C8010197F1F760E384E07E
:1023A00095E00E94DD09C8010197F1F760E384E040
:1023B00095E00E94DD0983E592E00197F1F760E284
:1023C00084E095E00E94DD098091090580620E9409
:1023D0000D0A84E080930A058CE00E940D0A0E9499
:1023E0001E0A82E080930B0586E00E940D0A82E0BF
:1023F0000E940D0A8BE39FE10197F1F788E080933B
:102400000F0560E084E095E00E94110760E081E044
:102410000E94260A8DE791E00E94130C61E084E09F
:102420000E94260A80E991E00E94130C62E080E09D
:102430000E94260A8EE991E00E94130C64EF71E07D
:1024400080E090E00E941A0263E081E00E94260A88
:1024500062E170E090E080E00E9496288C01D12C2F
:10246000C12C009749F0FC01108262EB71E00E94E0
:102470005C2931E1C32ED12CF12CE12C63E081E009
:102480008E0D0E94260AEC14FD0430F4F801EE0DC6
:10249000FF1D0115110521F410928003E0E8F3E01F
:1024A000608184E095E00E94640362E370E080E074
:1024B00090E00E941A0280910A05982F91609093F3
:1024C0000A0589600E940D0AFFEFEF1AFF0A81E1F9
:1024D000E816F10499F680910A058E7F80930A052B
:1024E00088600E940D0A68EE73E080E090E00E9430
:1024F0001A020E941E0A0115110519F0C8010E9456
:102500000D2880E50E940D0A00E011E028E0E22E8F
:1025100021E0F22EF80161918F0184E095E00E94A4
:10252000F609E016F106B1F785E090E09093AB0371
:102530008093AA038AE090E09093B1038093B00364
:1025400084E190E09093B7038093B6038EE190E02E
:102550009093BD038093BC0388E290E09093C30303
:102560008093C20382E390E09093C9038093C803F1
:102570008CE390E090939F0380939E0386E490E029
:10258000909399038093980380E590E09093A5033E
:102590008093A4038AE590E090938E0380938D034B
:1025A00084E690E09093900380938F030E94AC0A9E
:1025B0000E94180C80E1809381001092800082E1DB
:1025C0009AE7909387008093860084E1809381004E
:1025D0008CEB97E0909309018093080181E0809350
:1025E0006F0008EE13E022242394312C0E94290767
:1025F00060E080E00E94260A84EC91E00E94130CC7
:1026000060E086E00E94260A609181037091820357
:1026100080918303909184030E943E0D60E08CE0E2
:102620000E94260A6FED84E095E00E94640360E05A
:102630008DE00E94260A8BEC91E00E94130C61E071
:1026400080E00E94260A8DEC91E00E94130C61E06C
:1026500087E00E94260A609185037091860380912D
:102660008703909188030E943E0D61E08DE00E94F7
:10267000260A85ED91E00E94130C62E080E00E9442
:10268000260A87ED91E00E94130C62E089E00E9427
:10269000260A4091910350E070E060E02AE084E077
:1026A00095E00E94910B62E08BE00E94260A84E98B
:1026B00092E00E94130C62E08CE00E94260A409196
:1026C000920350E070E060E02AE084E095E00E9430
:1026D000910B62E08EE00E94260A84E992E00E945B
:1026E000130C62E08FE00E94260A4091930350E0B1
:1026F00070E060E02AE084E095E00E94910B63E0E6
:1027000080E00E94260A80EE91E00E94130C63E0B4
:102710008BE00E94260A6091890370918A03809160
:102720008B0390918C030E94092784E095E00E941E
:10273000DD0B63E08EE00E94260A20E030E040E8F6
:102740005FE36091890370918A0380918B0390917C
:102750008C030E94112581110C94B01D8CEE91E028
:102760000E94130C20E030E046EC52E460918903B3
:1027700070918A0380918B0390918C030E941125A4
:1027800087FF08C063E08DE00E94260A8FE691E093
:102790000E94130C20E030E040E251E46091890394
:1027A00070918A0380918B0390918C030E94112574
:1027B00087FF08C063E08CE00E94260A8FE691E064
:1027C0000E94130C0E9429074090A6035090A70373
:1027D0006090A8037090A9038090B2039090B30317
:1027E000A090B403B090B503A5019401C301B20158
:1027F0000E949C266F83788789879A87C09081037F
:10280000D0908203E0908303F0908403A7019601A7
:102810000E941125181614F40C94B41DA5019401FE
:10282000C301B2010E949D269B01AC01C701B60104
:102830000E941125181614F40C94B41D84E295E03E
:102840000E94DE0782E295E00E94DE070E942907CF
:102850008090AC039090AD03A090AE03B090AF0316
:102860004090B8035090B9036090BA037090BB03D6
:10287000C0908503D0908603E0908703F090880392
:10288000A3019201C501B4010E949C26A7019601F3
:102890000E941125181614F40C94631EA3019201D2
:1028A000C501B4010E949D269B01AC01C701B60180
:1028B0000E941125181614F40C94631E83E295E00F
:1028C0000E94DE0761E080E10E94260A60E084E069
:1028D00095E00E94F6090E942907C0908503D090D8
:1028E0008603E0908703F09088032091B80330912D
:1028F000B9034091BA035091BB036091AC0370914E
:10290000AD038091AE039091AF030E949C26A70176
:1029100096010E943F2718160CF048C061E0809194
:1029200023050E9496012091B8033091B90340918C
:10293000BA035091BB036091AC037091AD038091D9
:10294000AE039091AF030E949C262091C403309166
:10295000C5034091C6035091C7030E949C269B016A
:10296000AC01C701B6010E9411251816FCF061E008
:1029700080E10E94260A61E084E095E00E94F60969
:1029800064E670E080E090E00E941A020E944D022E
:1029900061E080E10E94260A8FE691E00E94130C1C
:1029A00064E670E080E090E00E941A020E94180C39
:1029B0008091CA03882309F46EC062E080E00E941F
:1029C000260A8DE591E00E94130C6AE070E080E039
:1029D00090E00E941A0262E083E00E94260A85EFDE
:1029E00091E00E94130C68EC70E080E090E00E949F
:1029F0001A0262E080E00E94260A8CE591E00E94C3
:102A0000130C6AE070E080E090E00E941A0260918E
:102A10009A0370919B0380919C0390919D030E9467
:102A200009276B01809128059091290560E00197A5
:102A300011F00C94C11E809127050E94960161E05F
:102A4000809126050E9496010C9DB0010D9D700D90
:102A50001C9D700D1124072E000C880B990B0E94F1
:102A60001A0260E0809126050E94960160E0809144
:102A700027050E9496011092290510922805609161
:102A800094037091950380919603909197030E940F
:102A900010276093910383E095E00E940708882344
:102AA00011F40C94A01D0E941E0A60E083E00E94B5
:102AB000260A87E092E00E94130C61E084E00E9405
:102AC000260A85E192E00E94130C64E170E080E048
:102AD00090E00E941A020E941E0A61E084E00E94B7
:102AE000260A84E292E00E94130C60E081E00E94DA
:102AF000260A87E292E00E94130C61E086E00E94C1
:102B0000260A6091A6037091A7038091A803909173
:102B1000A9030E943E0D61E08BE00E94260A6FED42
:102B200084E095E00E94640361E08CE00E94260A44
:102B30008BEC91E00E94130C62E082E00E94260A76
:102B400088E392E00E94130C63E086E00E94260A6C
:102B50006091B2037091B3038091B4039091B50377
:102B60000E943E0D63E08AE00E94260A6FED84E039
:102B700095E00E94640363E08BE00E94260A8BECE0
:102B800091E00E94130C82E095E00E9407088823E0
:102B9000B1F1C090A603D090A703E090A803F090F5
:102BA000A90320E030E046EC52E4C701B6010E94E0
:102BB000112587FF24C02DEC3CEC4CEC5DE3C701F4
:102BC000B6010E949D266093A6037093A70380938D
:102BD000A8039093A90361E086E00E94260A609111
:102BE000A6037091A7038091A8039091A9030E9466
:102BF0003E0D64E670E080E090E00E941A0282E000
:102C000095E00E94ED078823A1F0C090A603D09024
:102C1000A703E090A803F090A90320E030E046EC81
:102C200052E4C701B6010E94112587FF02C00C942F
:102C3000F21E81E095E00E94070881110C94161F96
:102C400081E095E00E94ED07882399F0C090A603EB
:102C5000D090A703E090A803F090A90320E030E013
:102C6000A901C701B6010E943F27181614F40C945D
:102C7000611F83E095E00E94E30781112ECF61E0A0
:102C800084E00E94260A8EE691E00E94130C64E61E
:102C900070E080E090E00E941A0263E084E00E940D
:102CA000260A84E292E00E94130C82E095E00E94E2
:102CB00007088823B1F1C090B203D090B303E0902D
:102CC000B403F090B50320E030E040EA50E4C701DF
:102CD000B6010E94112587FF24C02DEC3CEC4CEC82
:102CE0005DE3C701B6010E949D266093B203709315
:102CF000B3038093B4039093B50363E086E00E942E
:102D0000260A6091B2037091B3038091B40390914D
:102D1000B5030E943E0D64E670E080E090E00E9402
:102D20001A0282E095E00E94ED078823A1F0C0908E
:102D3000B203D090B303E090B403F090B50320E069
:102D400030E040EA50E4C701B6010E94112587FF38
:102D500002C00C94961F81E095E00E940708811143
:102D60000C94BA1F81E095E00E94ED07882399F04A
:102D7000C090B203D090B303E090B403F090B503D9
:102D800020E030E0A901C701B6010E943F271816D4
:102D900014F40C94052083E095E00E94E307811170
:102DA0007CCF0E941E0A64E670E080E090E00E9402
:102DB0001A0261E084E00E94260A84E292E00E9406
:102DC000130C60E083E00E94260A88E492E00E94EF
:102DD000130C61E086E00E94260A6091AC037091BA
:102DE000AD038091AE039091AF030E943E0D61E070
:102DF0008BE00E94260A86E592E00E94130C62E0B6
:102E000081E00E94260A8BE592E00E94130C63E0A9
:102E100086E00E94260A6091B8037091B903809100
:102E2000BA039091BB030E943E0D63E08AE00E94CA
:102E3000260A86E592E00E94130C82E095E00E944B
:102E400007088823B1F1C090AC03D090AD03E090A7
:102E5000AE03F090AF0320E030E046EC52E4C7014F
:102E6000B6010E94112587FF24C02DEC3CEC4CECF0
:102E70005DE3C701B6010E949D266093AC03709389
:102E8000AD038093AE039093AF0361E086E00E94B0
:102E9000260A6091AC037091AD038091AE039091CE
:102EA000AF030E943E0D64E670E080E090E00E9477
:102EB0001A0282E095E00E94ED078823A1F0C090FD
:102EC000AC03D090AD03E090AE03F090AF0320E0F0
:102ED00030E046EC52E4C701B6010E94112587FF9D
:102EE00002C00C943A2081E095E00E94070881110D
:102EF0000C945E2081E095E00E94ED07882399F014
:102F0000C090AC03D090AD03E090AE03F090AF035F
:102F100020E030E0A901C701B6010E943F27181642
:102F200014F40C94A92083E095E00E94E30781113A
:102F300040CF61E084E00E94260A8EE691E00E9484
:102F4000130C64E670E080E090E00E941A0263E0F7
:102F500084E00E94260A84E292E00E94130C82E040
:102F600095E00E940708882309F442C0C090B80386
:102F7000D090B903E090BA03F090BB0320E030E0BA
:102F800040EA50E4C701B6010E94112587FF30C016
:102F90002DEC3CEC4CEC5DE3C701B6010E949D2694
:102FA0006B017C0120E030E040EA50E40E943F27C2
:102FB000181614F40C94DE20C092B803D092B90312
:102FC000E092BA03F092BB0363E086E00E94260A17
:102FD0006091B8037091B9038091BA039091BB03DB
:102FE0000E943E0D64E670E080E090E00E941A02CC
:102FF00082E095E00E94ED078823A1F0C090B8031D
:10300000D090B903E090BA03F090BB0320E030E029
:1030100040EA50E4C701B6010E94112587FF02C0B3
:103020000C94EC2081E095E00E94070881110C943B
:10303000272181E095E00E94ED07882399F0C09058
:10304000B803D090B903E090BA03F090BB0320E03E
:1030500030E0A901C701B6010E943F27181614F4F9
:103060000C94722183E095E00E94E30781116FCFF9
:1030700064E670E080E090E00E941A020E941E0A5E
:1030800060E081E00E94260A8FE692E00E94130C25
:1030900061E084E00E94260A84E292E00E94130C20
:1030A00061E086E00E94260A6091BE037091BF0332
:1030B0008091C0039091C1030E943E0D61E08AE0BF
:1030C0000E94260A6FED84E095E00E94640361E0AF
:1030D0008BE00E94260A8BEC91E00E94130C62E0C8
:1030E00080E00E94260A82E892E00E94130C63E0CE
:1030F00086E00E94260A6091C4037091C503809106
:10310000C6039091C7030E943E0D63E08AE00E94CF
:10311000260A86E592E00E94130C82E095E00E9468
:1031200007088823B1F1C090BE03D090BF03E090A0
:10313000C003F090C10320E030E040EA50E4C70152
:10314000B6010E94112587FF24C02DEC3CEC4CEC0D
:103150005DE3C701B6010E949D266093BE03709394
:10316000BF038093C0039093C10361E086E00E9497
:10317000260A6091BE037091BF038091C0039091B5
:10318000C1030E943E0D64E670E080E090E00E9482
:103190001A0282E095E00E94ED078823A1F0C0901A
:1031A000BE03D090BF03E090C003F090C10320E0C5
:1031B00030E040EA50E4C701B6010E94112587FFC4
:1031C00002C00C94AA2181E095E00E9407088111B9
:1031D0000C94CE2181E095E00E94ED078823A1F0B8
:1031E000C090BE03D090BF03E090C003F090C10335
:1031F00020E030E040EA50E4C701B6010E943F27DA
:10320000181614F40C941F2283E095E00E94E30743
:10321000811136CF61E084E00E94260A8EE691E0BB
:103220000E94130C64E670E080E090E00E941A02B5
:1032300063E084E00E94260A84E292E00E94130C7C
:1032400082E095E00E9407088823B1F1C090C40392
:10325000D090C503E090C603F090C70320E030E0B3
:1032600040EA50E4C701B6010E94112587FF24C03F
:103270002DEC3CEC4CEC5DE3C701B6010E949D26B1
:103280006093C4037093C5038093C6039093C703F0
:1032900063E086E00E94260A6091C4037091C50332
:1032A0008091C6039091C7030E943E0D64E670E0D2
:1032B00080E090E00E941A0282E095E00E94ED0713
:1032C0008823A1F0C090C403D090C503E090C6034A
:1032D000F090C70320E030E040EA50E4C701B601B7
:1032E0000E94112587FF02C00C94592281E095E0CD
:1032F0000E94070881110C947D2281E095E00E94D4
:10330000ED07882399F0C090C403D090C503E090E6
:10331000C603F090C70320E030E0A901C701B60161
:103320000E943F27181614F40C94C82283E095E0FD
:103330000E94E30781117CCF64E670E080E090E0BA
:103340000E941A020E941E0A62E084E00E94260A7D
:1033500084E292E00E94130C60E080E00E94260A62
:1033600086E992E00E94130C62E086E00E94260A41
:103370006091A0037091A1038091A2039091A30397
:103380000E94092784E095E00E94DD0B20E030E0F8
:1033900048EC52E46091A0037091A1038091A203D4
:1033A0009091A3030E94112587FF08C062E088E086
:1033B0000E94260A8FE691E00E94130C20E030E084
:1033C00040E251E46091A0037091A1038091A203B7
:1033D0009091A3030E94112587FF08C062E087E057
:1033E0000E94260A8FE691E00E94130C62E08AE0B8
:1033F0000E94260A80EF91E00E94130C82E095E083
:103400000E9407088823D1F1C090A003D090A103A7
:10341000E090A203F090A30320E030E048EC52E4F7
:10342000C701B6010E94112587FF28C020E030E0C7
:1034300040E85FE3C701B6010E949D266093A003A8
:103440007093A1038093A2039093A30362E086E0AC
:103450000E94260A6091A0037091A1038091A203AB
:103460009091A3030E94092784E095E00E94DD0B60
:1034700064E670E080E090E00E941A0264E170E08F
:1034800080E090E00E941A0282E095E00E94ED0741
:103490008823A1F0C090A003D090A103E090A203E4
:1034A000F090A30320E030E048EC52E4C701B601FD
:1034B0000E94112587FF02C00C94FD2281E095E057
:1034C0000E94070881110C94252381E095E00E9459
:1034D000ED07882399F0C090A003D090A103E0905D
:1034E000A203F090A30320E030E0A901C701B601D8
:1034F0000E943F27181614F40C94742383E095E07F
:103500000E94E307811120CF6AE070E080E090E044
:103510000E941A020E941E0A60E080E00E94260AB1
:103520008BEA92E00E94130C61E084E00E94260A7C
:1035300084E292E00E94130C61E086E00E94260A79
:1035400060919A0370919B0380919C0390919D03DD
:103550000E94092784E095E00E94DD0B20E030E026
:1035600040E251E460919A0370919B0380919C0327
:1035700090919D030E94112587FF08C061E087E0BC
:103580000E94260A8FE691E00E94130C61E088E019
:103590000E94260A80ED92E00E94130C62E080E017
:1035A0000E94260A8CEB92E00E94130C63E086E0F6
:1035B0000E94260A6091940370919503809196036E
:1035C000909197030E94092784E095E00E94DD0B0B
:1035D00020E030E040E251E4609194037091950363
:1035E00080919603909197030E94112587FF08C050
:1035F00063E087E00E94260A8FE691E00E94130CA8
:1036000063E088E00E94260A8EEC92E00E94130C90
:1036100082E095E00E9407088823D1F1C0909A03C8
:10362000D0909B03E0909C03F0909D0320E030E05D
:1036300040E850E4C701B6010E94112587FF28C069
:1036400020E030E040E85FE3C701B6010E949D261C
:1036500060939A0370939B0380939C0390939D03C4
:1036600061E086E00E94260A60919A0370919B03B4
:1036700080919C0390919D030E94092784E095E02E
:103680000E94DD0B64E670E080E090E00E941A0288
:1036900082E095E00E94ED078823A1F0C0909A0394
:1036A000D0909B03E0909C03F0909D0320E030E0DD
:1036B00040E850E4C701B6010E94112587FF02C00F
:1036C0000C94AD2381E095E00E94070881110C94D1
:1036D000D52381E095E00E94ED07882399F0C09002
:1036E0009A03D0909B03E0909C03F0909D0320E010
:1036F00030E0A901C701B6010E943F27181614F453
:103700000C94242483E095E00E94E307811104CF08
:1037100061E084E00E94260A8EE691E00E94130C8C
:1037200064E670E080E090E00E941A0263E084E0CA
:103730000E94260A84E292E00E94130C82E095E047
:103740000E940708882309F44EC0C0909403D090CB
:103750009503E0909603F090970320E030E048EC6A
:1037600052E4C701B6010E94112587FF3CC020E04A
:1037700030E040E85FE3C701B6010E949D266093F8
:10378000940370939503809396039093970320E09E
:1037900030E048EC52E40E943F27181664F480E0C1
:1037A00090E0A8ECB2E48093B2039093B303A093AB
:1037B000B403B093B50364E670E080E090E00E944B
:1037C0001A0263E086E00E94260A609194037091D9
:1037D000950380919603909197030E94092784E0B6
:1037E00095E00E94DD0B82E095E00E94ED078823C2
:1037F000A1F0C0909403D0909503E0909603F090D0
:10380000970320E030E048EC52E4C701B6010E9483
:10381000112587FF02C00C944B2481E095E00E94A3
:10382000070881110C94752481E095E00E94ED0752
:10383000882399F0C0909403D0909503E09096036C
:10384000F090970320E030E0A901C701B6010E9483
:103850003F27181614F40C94C12483E095E00E94CD
:10386000E307811163CF0E941E0A64E170E080E0EB
:1038700090E00E941A0264E670E080E090E00E940E
:103880001A020E941E0A60E080E00E94260A82ED71
:1038900092E00E94130C61E082E00E94260A86EE0C
:1038A00092E00E94130C62E080E00E94260A86EFFC
:1038B00092E00E94130C83E095E00E94E3078823C6
:1038C00061F081E095E00E94E307882331F082E017
:1038D00095E00E94E3078111D6CF83E095E00E9436
:1038E0000708882311F40C94FA24609194037091D2
:1038F000950380919603909197030E9410276093FF
:1039000091031092920310929303CE0101960E94AC
:10391000110886E0FE013196ABEFB4E001900D9204
:103920008A95E1F764E170E080E090E00E941A027D
:1039300080908F03909090038BEFC82E84E0D82E58
:10394000F12CE12CF60171906F015401AE0CBF1CFB
:10395000C5010E943526781621F0672DC5010E9409
:103960003D26FFEFEF1AFF0A86E0E816F10451F753
:1039700064E170E080E090E00E941A0266EA73E081
:103980008091AA039091AB030E94560A64E170E013
:1039900080E090E00E941A0262EB73E08091B6032F
:1039A0009091B7030E94560A64E170E080E090E0D5
:1039B0000E941A026EEB73E08091C2039091C303E0
:1039C0000E94560A64E170E080E090E00E941A02D2
:1039D0006CEA73E08091B0039091B1030E94560AA3
:1039E00064E170E080E090E00E941A0268EB73E00E
:1039F0008091BC039091BD030E94560A64E170E07F
:103A000080E090E00E941A0264EC73E08091C803A9
:103A10009091C9030E94560A64E170E080E090E052
:103A20000E941A026AE973E080919E0390919F03BD
:103A30000E94560A64E170E080E090E00E941A0261
:103A400064E973E080919803909199030E94560A6B
:103A500064E170E080E090E00E941A0260EA73E0A6
:103A60008091A4039091A5030E94560A64E170E03E
:103A700080E090E00E941A02C090A003D090A103C1
:103A8000E090A203F090A303C0928903D0928A032E
:103A9000E0928B03F0928C0364E170E080E090E0B0
:103AA0000E941A02C701B6010E94092780918D0366
:103AB00090918E030E943D2664E170E080E090E0EA
:103AC0000E941A020E941E0A60E084E00E94260AF8
:103AD0008BE093E00E94130C63E083E00E94260ACF
:103AE000FF24F39461E08F2D0E94260A6AE084E0AF
:103AF00095E00E94F60962E08F2D0E94260A6AE096
:103B000084E095E00E94F6096CE370E080E090E0CC
:103B10000E941A02F39492E1F912E4CF0E941E0A65
:103B200061E080E00E94260A85E193E00E94130C88
:103B300068EE73E080E090E00E941A020E941E0A84
:103B4000E0E0F0E0EF2B11F40C94F6120E94D503A4
:103B5000882311F40C94F6120E9400000C94F612C3
:103B600080EF91E00C94B013A5019401C301B20160
:103B70000E949D269B01AC01C701B6010E943F2710
:103B800018160CF048C061E0809124050E9496014F
:103B900082E295E00E94DE072091B2033091B303E8
:103BA0004091B4035091B5036091A6037091A703AF
:103BB0008091A8039091A9030E949D262091BE03A5
:103BC0003091BF034091C0035091C1030E949D26D4
:103BD0009B01AC01C701B6010E943F2787FD10C0C1
:103BE0000E944D0260E080E10E94260A8FE691E08B
:103BF0000E94130C66E970E080E090E00E941A02D7
:103C000060E080E10E94260A61E084E095E00E9485
:103C1000F6090C942614A70196016F817885898591
:103C20009A850E943F27181614F00C94261484E2FB
:103C300095E00E94DE0761E0809122050E949601D6
:103C40002091B2033091B3034091B4035091B50376
:103C50006091A6037091A7038091A8039091A90396
:103C60000E949C262091BE033091BF034091C00367
:103C70005091C1030E949C269B01AC01C701B60173
:103C80000E94112518160CF4BBCF0E944D0260E073
:103C900080E10E94260A61E084E095E00E94F60936
:103CA00064E670E080E090E00E941A0260E080E14B
:103CB0000E94260A8FE691E00E94130C64E670E0F1
:103CC00080E090E09BCFA3019201C501B4010E9466
:103CD0009D269B01AC01C701B6010E943F27181623
:103CE00014F00C946B1483E295E00E94DE0720919F
:103CF000B8033091B9034091BA035091BB0360916E
:103D0000AC037091AD038091AE039091AF030E941C
:103D10009D262091C4033091C5034091C603509164
:103D2000C7030E949D269B01AC01C701B6010E94FA
:103D30003F2787FD1FC00E944D0261E080E10E9485
:103D4000260A61E084E095E00E94F60964E670E0EE
:103D500080E090E00E941A0261E080E10E94260A61
:103D60008FE691E00E94130C64E670E080E090E042
:103D70000E941A0261E080E10E94260A61E00C9430
:103D80006714809126050E94960161E080912705C5
:103D90000E9496010C9DB0010D9D700D1C9D700D33
:103DA0001124072E000C880B990B0E941A0260E068
:103DB000809126050E94960160E0809127050E946F
:103DC00096013092290520922805B6018CE494E0F2
:103DD0000E94DD0B64E072E08CE494E00E94820BB0
:103DE0000C943F152DEC3CEC4CEC5DE3C701B601A7
:103DF0000E949D266093A6037093A7038093A80357
:103E00009093A90361E086E00E94260A6091A603D0
:103E10007091A7038091A8039091A9030E943E0D81
:103E200061E070E080E090E00C94FD15C090A60386
:103E3000D090A703E090A803F090A90320E030E021
:103E4000A901C701B6010E943F27181614F00C946F
:103E500020162DEC3CEC4CEC5DE3C701B6010E9452
:103E60009C266B017C0120E030E0A9010E94112515
:103E700087FD1EC0C092A603D092A703E092A803BC
:103E8000F092A90361E086E00E94260A6091A603F1
:103E90007091A7038091A8039091A9030E943E0D01
:103EA00064E670E080E090E00E941A020C94201614
:103EB0001092A6031092A7031092A8031092A903D0
:103EC000E1CF2DEC3CEC4CEC5DE3C701B6010E9468
:103ED0009C266B017C0120E030E0A9010E941125A5
:103EE00087FD1BC0C092A603D092A703E092A8034F
:103EF000F092A90361E086E00E94260A6091A60381
:103F00007091A7038091A8039091A9030E943E0D90
:103F100061E070E080E090E0C7CF1092A6031092BD
:103F2000A7031092A8031092A903E4CF2DEC3CEC58
:103F30004CEC5DE3C701B6010E949D266093B2037D
:103F40007093B3038093B4039093B50363E086E06A
:103F50000E94260A6091B2037091B3038091B4036A
:103F60009091B5030E943E0D61E070E080E090E02A
:103F70000C948F16C090B203D090B303E090B403BA
:103F8000F090B50320E030E0A901C701B6010E941E
:103F90003F27181614F00C94B2162DEC3CEC4CECA8
:103FA0005DE3C701B6010E949C266B017C0120E005
:103FB00030E0A9010E94112587FD1EC0C092B20306
:103FC000D092B303E092B403F092B50363E086E0CD
:103FD0000E94260A6091B2037091B3038091B403EA
:103FE0009091B5030E943E0D64E670E080E090E0A1
:103FF0000E941A020C94B2161092B2031092B303EC
:104000001092B4031092B503E1CF2DEC3CEC4CECD4
:104010005DE3C701B6010E949C266B017C0120E094
:1040200030E0A9010E94112587FD1BC0C092B20398
:10403000D092B303E092B403F092B50363E086E05C
:104040000E94260A6091B2037091B3038091B40379
:104050009091B5030E943E0D61E070E080E090E039
:10406000C7CF1092B2031092B3031092B403109210
:10407000B503E4CF2DEC3CEC4CEC5DE3C701B6019D
:104080000E949D266093AC037093AD038093AE03B2
:104090009093AF0361E086E00E94260A6091AC0332
:1040A0007091AD038091AE039091AF030E943E0DDD
:1040B00061E070E080E090E00C945717C090AC0392
:1040C000D090AD03E090AE03F090AF0320E030E07D
:1040D000A901C701B6010E943F27181614F00C94DD
:1040E0007A172DEC3CEC4CEC5DE3C701B6010E9465
:1040F0009C266B017C0120E030E0A9010E94112583
:1041000087FD1EC0C092AC03D092AD03E092AE0317
:10411000F092AF0361E086E00E94260A6091AC0352
:104120007091AD038091AE039091AF030E943E0D5C
:1041300064E670E080E090E00E941A020C947A1726
:104140001092AC031092AD031092AE031092AF0325
:10415000E1CF2DEC3CEC4CEC5DE3C701B6010E94D5
:104160009C266B017C0120E030E0A9010E94112512
:1041700087FD1BC0C092AC03D092AD03E092AE03AA
:10418000F092AF0361E086E00E94260A6091AC03E2
:104190007091AD038091AE039091AF030E943E0DEC
:1041A00061E070E080E090E0C7CF1092AC03109225
:1041B000AD031092AE031092AF03E4CF80E090E025
:1041C000A0EAB0E48093B8039093B903A093BA0334
:1041D000B093BB030C94E4172DEC3CEC4CEC5DE38A
:1041E000C701B6010E949D266B017C0120E030E0F2
:1041F00040EA50E40E943F271816E4F0C092B8034A
:10420000D092B903E092BA03F092BB0363E086E078
:104210000E94260A6091B8037091B9038091BA0395
:104220009091BB030E943E0D61E070E080E090E061
:104230000C94F61780E090E0A0EAB0E48093B80315
:104240009093B903A093BA03B093BB03DFCFC090A0
:10425000B803D090B903E090BA03F090BB0320E01C
:1042600030E0A901C701B6010E943F27181614F0DB
:104270000C9419182DEC3CEC4CEC5DE3C701B60135
:104280000E949C266B017C0120E030E0A9010E9485
:10429000112587FD1EC0C092B803D092B903E092E9
:1042A000BA03F092BB0364E670E080E090E00E9405
:1042B0001A0263E086E00E94260A6091B8037091BA
:1042C000B9038091BA039091BB030E943E0D0C94F8
:1042D00019181092B8031092B9031092BA031092F1
:1042E000BB03E1CF2DEC3CEC4CEC5DE3C701B60128
:1042F0000E949C266B017C0120E030E0A9010E9415
:10430000112587FD1EC0C092B803D092B903E09278
:10431000BA03F092BB0363E086E00E94260A609134
:10432000B8037091B9038091BA039091BB030E94C6
:104330003E0D61E070E080E090E00E941A020C9473
:1043400019181092B8031092B9031092BA03109280
:10435000BB03E1CF2DEC3CEC4CEC5DE3C701B601B7
:104360000E949D266093BE037093BF038093C00399
:104370009093C10361E086E00E94260A6091BE032B
:104380007091BF038091C0039091C1030E943E0DC4
:1043900061E070E080E090E00C94C718C090BE032C
:1043A000D090BF03E090C003F090C10320E030E064
:1043B00040EA50E4C701B6010E943F27181614F0E6
:1043C0000C94EA182DEC3CEC4CEC5DE3C701B60113
:1043D0000E949C266B017C0120E030E040EA50E422
:1043E0000E94112587FD1EC0C092BE03D092BF035C
:1043F000E092C003F092C10361E086E00E94260AC9
:104400006091BE037091BF038091C0039091C1037E
:104410000E943E0D64E670E080E090E00E941A0287
:104420000C94EA1880E090E0A0EAB0E48093BE0328
:104430009093BF03A093C003B093C103DDCF2DECD5
:104440003CEC4CEC5DE3C701B6010E949C266B017D
:104450007C0120E030E040EA50E40E94112587FD15
:104460001BC0C092BE03D092BF03E092C003F09283
:10447000C10361E086E00E94260A6091BE0370914C
:10448000BF038091C0039091C1030E943E0D61E083
:1044900070E080E090E0C2CF80E090E0A0EAB0E47D
:1044A0008093BE039093BF03A093C003B093C10356
:1044B000E0CF2DEC3CEC4CEC5DE3C701B6010E9473
:1044C0009D266093C4037093C5038093C6039093A5
:1044D000C70363E086E00E94260A6091C4037091DE
:1044E000C5038091C6039091C7030E943E0D61E011
:1044F00070E080E090E00C945A19C090C403D09012
:10450000C503E090C603F090C70320E030E0A901A6
:10451000C701B6010E943F27181614F00C947D19AC
:104520002DEC3CEC4CEC5DE3C701B6010E949C26EF
:104530006B017C0120E030E0A9010E94112587FD7C
:104540001EC0C092C403D092C503E092C603F0928D
:10455000C70363E086E00E94260A6091C40370915D
:10456000C5038091C6039091C7030E943E0D64E687
:1045700070E080E090E00E941A020C947D19109285
:10458000C4031092C5031092C6031092C703E1CF73
:104590002DEC3CEC4CEC5DE3C701B6010E949C267F
:1045A0006B017C0120E030E0A9010E94112587FD0C
:1045B0001BC0C092C403D092C503E092C603F09220
:1045C000C70363E086E00E94260A6091C4037091ED
:1045D000C5038091C6039091C7030E943E0D61E020
:1045E00070E080E090E0C7CF1092C4031092C50342
:1045F0001092C6031092C703E4CF20E030E040E8F9
:104600005FE3C701B6010E949D266093A0037093EB
:10461000A1038093A2039093A30362E086E00E942B
:10462000260A6091A0037091A1038091A20390914A
:10463000A3030E94092784E095E00E94DD0B61E05E
:1046400070E080E090E00C94421AC090A003D090FB
:10465000A103E090A203F090A30320E030E0A901C1
:10466000C701B6010E943F27181614F00C94651A72
:1046700020E030E040E85FE3C701B6010E949C26DD
:104680006B017C0120E030E0A9010E94112587FD2B
:1046900022C0C092A003D092A103E092A203F092A4
:1046A000A30362E086E00E94260A6091A003709155
:1046B000A1038091A2039091A3030E94092784E0A3
:1046C00095E00E94DD0B6AE070E080E090E00E94DF
:1046D0001A020C94651A1092A0031092A103109272
:1046E000A2031092A303DDCF20E030E040E85FE3B7
:1046F000C701B6010E949C266B017C0120E030E0DE
:10470000A9010E94112587FD1FC0C092A003D0926D
:10471000A103E092A203F092A30362E086E00E946C
:10472000260A6091A0037091A1038091A203909149
:10473000A3030E94092784E095E00E94DD0B61E05D
:1047400070E080E090E0C3CF1092A0031092A1032C
:104750001092A2031092A303E0CF20E030E040E8E3
:104760005FE3C701B6010E949D2660939A03709390
:104770009B0380939C0390939D0361E086E00E94DD
:10478000260A60919A0370919B0380919C039091FB
:104790009D030E94092784E095E00E94DD0B61E003
:1047A00070E080E090E00C94461BC0909A03D0909B
:1047B0009B03E0909C03F0909D0320E030E0A90172
:1047C000C701B6010E943F27181614F00C94691B0C
:1047D00020E030E040E85FE3C701B6010E949C267C
:1047E0006B017C0120E030E0A9010E94112587FDCA
:1047F00022C0C0929A03D0929B03E0929C03F09255
:104800009D0361E086E00E94260A60919A03709100
:104810009B0380919C0390919D030E94092784E053
:1048200095E00E94DD0B64E670E080E090E00E947D
:104830001A020C94691B10929A0310929B03109217
:104840009C0310929D03DDCF20E030E040E85FE361
:10485000C701B6010E949C2660939A0370939B0344
:1048600080939C0390939D0361E086E00E94260A5A
:1048700060919A0370919B0380919C0390919D039A
:104880000E94092784E095E00E94DD0B61E070E062
:1048900080E090E0CCCF20E030E040E85FE3C7016B
:1048A000B6010E949D2660939403709395038093B4
:1048B00096039093970363E086E00E94260A609136
:1048C00094037091950380919603909197030E94B1
:1048D000092784E095E00E94DD0B61E070E080E054
:1048E00090E00E941A020C94F31BC0909403D090A5
:1048F0009503E0909603F090970320E030E0A90143
:10490000C701B6010E943F27181614F00C94141C1E
:1049100020E030E040E85FE3C701B6010E949C263A
:1049200060939403709395038093960390939703F9
:1049300020E030E0A9010E94112587FF08C01092F5
:10494000B2031092B3031092B4031092B50363E064
:1049500086E00E94260A60919403709195038091ED
:104960009603909197030E94092784E095E00E94A6
:10497000DD0B64E670E080E090E00E941A020C9487
:10498000141C20E030E040E85FE3C701B6010E945C
:104990009C266B017C0120E030E0A9010E941125DA
:1049A00087FD1FC0C0929403D0929503E0929603B6
:1049B000F092970363E086E00E94260A60919403D8
:1049C0007091950380919603909197030E94092717
:1049D00084E095E00E94DD0B61E070E080E090E013
:1049E000CCCF1092940310929503109296031092DC
:1049F0009703E0CF0E941E0A6AE070E080E090E03A
:104A00000E941A020E94AC0A61E082E00E94260A1B
:104A10008AE293E00E94130C6CE271E080E090E087
:104A20008BC80E94532508F481E00895E89409C0DA
:104A300097FB3EF490958095709561957F4F8F4FD1
:104A40009F4F9923A9F0F92F96E9BB279395F695E7
:104A5000879577956795B795F111F8CFFAF4BB0F65
:104A600011F460FF1BC06F5F7F4F8F4F9F4F16C0C9
:104A7000882311F096E911C0772321F09EE8872F53
:104A8000762F05C0662371F096E8862F70E060E00F
:104A90002AF09A95660F771F881FDAF7880F969588
:104AA000879597F90895990F0008550FAA0BE0E82C
:104AB000FEEF16161706E807F907C0F012161306E0
:104AC000E407F50798F0621B730B840B950B39F420
:104AD0000A2661F0232B242B252B21F408950A2686
:104AE00009F4A140A6958FEF811D811D08950E94B4
:104AF0008A250C94FB250E94ED2538F00E94F425B0
:104B000020F0952311F00C94E4250C94EA2511244F
:104B10000C942F260E940C2670F3959FC1F3950FDD
:104B200050E0551F629FF001729FBB27F00DB11D31
:104B3000639FAA27F00DB11DAA1F649F6627B00DC1
:104B4000A11D661F829F2227B00DA11D621F739FAA
:104B5000B00DA11D621F839FA00D611D221F749FB8
:104B60003327A00D611D231F849F600D211D822FFF
:104B7000762F6A2F11249F5750409AF0F1F0882326
:104B80004AF0EE0FFF1FBB1F661F771F881F915053
:104B90005040A9F79E3F510580F00C94E4250C94F9
:104BA0002F265F3FE4F3983ED4F38695779567957B
:104BB000B795F795E7959F5FC1F7FE2B880F911D7D
:104BC0009695879597F9089597F99F6780E870E023
:104BD00060E008959FEF80EC089500240A94161673
:104BE000170618060906089500240A9412161306DB
:104BF000140605060895092E0394000C11F4882369
:104C000052F0BB0F40F4BF2B11F460FF04C06F5F84
:104C10007F4F8F4F9F4F089557FD9058440F551F5A
:104C200059F05F3F71F04795880F97FB991F61F02E
:104C30009F3F79F087950895121613061406551FA5
:104C4000F2CF4695F1DF08C0161617061806991F11
:104C5000F1CF86957105610508940895E894BB2706
:104C600066277727CB0197F90895F999FECF92BD72
:104C700081BDF89A992780B50895262FF999FECF1E
:104C80001FBA92BD81BD20BD0FB6F894FA9AF99A69
:104C90000FBE019608950E948D26A59F900DB49F8A
:104CA000900DA49F800D911D112408952F923F9285
:104CB0004F925F926F927F928F929F92AF92BF922C
:104CC000CF92DF92EF92FF920F931F93CF93DF93D8
:104CD000CDB7DEB7CA1BDB0B0FB6F894DEBF0FBE35
:104CE000CDBF09942A88398848885F846E847D8482
:104CF0008C849B84AA84B984C884DF80EE80FD8084
:104D00000C811B81AA81B981CE0FD11D0FB6F894F9
:104D1000DEBF0FBECDBFED010895A29FB001B39FCE
:104D2000C001A39F700D811D1124911DB29F700DB4
:104D3000811D1124911D08955058BB27AA270E9458
:104D4000B4260C94FB250E94ED2538F00E94F42532
:104D500020F039F49F3F19F426F40C94EA250EF460
:104D6000E095E7FB0C94E425E92F0E940C2658F30C
:104D7000BA17620773078407950720F079F4A6F540
:104D80000C942E260EF4E0950B2EBA2FA02D0B01BD
:104D9000B90190010C01CA01A0011124FF27591B80
:104DA00099F0593F50F4503E68F11A16F040A22F86
:104DB000232F342F4427585FF3CF469537952795F7
:104DC000A795F0405395C9F77EF41F16BA0B620BF6
:104DD000730B840BBAF09150A1F0FF0FBB1F661F3D
:104DE000771F881FC2F70EC0BA0F621F731F841F80
:104DF00048F4879577956795B795F7959E3F08F0A6
:104E0000B0CF9395880F08F09927EE0F9795879567
:104E100008950E9410276894B1110C942F260895CC
:104E20000E94142688F09F5798F0B92F9927B75100
:104E3000B0F0E1F0660F771F881F991F1AF0BA953E
:104E4000C9F714C0B13091F00E942E26B1E0089548
:104E50000C942E26672F782F8827B85F39F0B93F3A
:104E6000CCF3869577956795B395D9F73EF49095F1
:104E70008095709561957F4F8F4F9F4F08950E9449
:104E8000532508F48FEF08950E945325880B990B42
:104E90000895A1E21A2EAA1BBB1BFD010DC0AA1F7B
:104EA000BB1FEE1FFF1FA217B307E407F50720F093
:104EB000A21BB30BE40BF50B661F771F881F991F0E
:104EC0001A9469F760957095809590959B01AC0157
:104ED000BD01CF010895EE0FFF1F0590F491E02D65
:104EE00009940F931F93CF93DF938230910510F4B1
:104EF00082E090E0E0912C05F0912D0530E020E07B
:104F0000B0E0A0E0309799F42115310509F44AC0CA
:104F1000281B390B24303105D8F58A819B81611516
:104F2000710589F1FB0193838283FE0111C04081E9
:104F300051810281138148175907E0F0481759073A
:104F400099F4109761F012960C93129713961C9394
:104F50003296CF01DF91CF911F910F910895009369
:104F60002C0510932D05F4CF2115310551F0421772
:104F7000530738F0A901DB019A01BD01DF01F801F7
:104F8000C1CFEF01F9CF90932D0580932C05CDCFA4
:104F9000FE01E20FF31F819391932250310939836F
:104FA0002883D7CF20912A0530912B05232B41F45C
:104FB00020910C0130910D0130932B0520932A058F
:104FC00020910A0130910B012115310541F42DB7D3
:104FD0003EB740910E0150910F01241B350BE0911B
:104FE0002A05F0912B05E217F307A0F42E1B3F0BC7
:104FF0002817390778F0AC014E5F5F4F241735074B
:1050000048F04E0F5F1F50932B0540932A05819364
:1050100091939FCFF0E0E0E09CCFCF93DF93009798
:10502000E9F0FC01329713821282A0912C05B09115
:105030002D05ED0130E020E01097A1F420813181B1
:10504000820F931F20912A0530912B0528173907CD
:1050500009F061C0F0932B05E0932A05DF91CF9111
:105060000895EA01CE17DF07E8F54A815B819E01CA
:1050700041155105B1F7E901FB83EA834991599143
:10508000C40FD51FEC17FD0761F480819181029652
:10509000840F951FE90199838883828193819B8383
:1050A0008A83F0E0E0E012968D919C91139700972F
:1050B000B9F52D913C911197CD010296820F931F66
:1050C00020912A0530912B052817390739F630979A
:1050D00051F510922D0510922C05B0932B05A0933D
:1050E0002A05BCCFD383C28340815181840F951F91
:1050F000C817D90761F44E5F5F4F88819981480FC7
:10510000591F518340838A819B8193838283211518
:10511000310509F0B0CFF0932D05E0932C059ECF1B
:10512000FD01DC01C0CF13821282D7CFB0E0A0E036
:10513000ECE9F8E20C9458268C01009751F4CB016D
:105140000E9471278C01C801CDB7DEB7E0E10C9455
:105150007426FC01E60FF71F9C0122503109E2176B
:10516000F30708F49DC0D901CD91DC911197C617C2
:10517000D70798F0C530D10530F3CE0104978617D4
:10518000970708F3C61BD70B2297C193D1936D9352
:105190007C93CF010E940D28D6CF5B01AC1ABD0ACB
:1051A0004C018C0E9D1EA0912C05B0912D05512C0B
:1051B000412CF12CE12C109731F580912A0590912A
:1051C0002B058815990509F05CC04616570608F0AE
:1051D00058C080910A0190910B01009741F48DB75E
:1051E0009EB740910E0150910F01841B950BE8175B
:1051F000F90708F055C0F0932B05E0932A05F90153
:1052000071836083A0CF8D919C91119712966C90C1
:10521000129713967C901397A815B90559F56C0150
:1052200042E0C40ED11CCA14DB0420F1AC014A19BF
:105230005B09DA011296159780F0628273825183BE
:105240004083D9016D937C93E114F10471F0D7018F
:105250001396FC93EE93129776CF22968C0F9D1F98
:10526000F90191838083F301EFCFF0932D05E09353
:105270002C0569CF4816590608F42C017D01D3018D
:105280009ACFCB010E9471277C01009749F0AE01B3
:10529000B8010E945329C8010E940D28870153CFED
:1052A00010E000E050CFFB01DC0102C001900D9244
:1052B00041505040D8F70895FB01DC0101900D9258
:1052C0000020E1F70895F894FFCF080C0E0F0E0CA4
:1052D0000800780400002E05800000004000140043
:1052E0005400000000000B046B0398035804C9032A
:1052F000A703BB0300000000E206B50626078B06E5
:10530000AE069B068C0600000000F6096B0326071C
:105310002507494E4355422E2054494D45205245BC
:1053200041434845440020202020202020202020E8
:1053300020202020202020202020006E616E006987
:105340006E66006F7666002A2A2A2A2A4545455F3E
:10535000574F4C462A2A2A2A2A0045474720494EB9
:1053600043554241544F5200627920554C524943B3
:1053700048205345554A495020522E004D616B65D7
:10538000206C69666520656173696572210054450A
:105390004D503D2000430048554D49443D200025D7
:1053A00000545F5370696E203D00484154434820CB
:1053B000494E203D20004461790044617973004DDD
:1053C0006F746F7220526F746174696F6E000D0A92
:1053D00000456E746572696E67204D454E550050EC
:1053E0006C6561736520576169742E2E2E003D3EF9
:1053F000005365742054656D7065726174757265D3
:105400003A0054656D7020546F6C6572616E63650F
:105410003A005365742048756D69646974793A007F
:10542000252052480048756D696469747920546F6D
:105430006C6572616E63653A0054656D705F546FA0
:105440006C2054726573686F6C643A0048756D69BE
:10545000645F546F6C2054726573686F6C643A00BB
:1054600053657420496E6375626174696F6E5F5431
:10547000696D653A0054696D6520447572696E679F
:1054800020526F742E0054696D65204265747765F3
:10549000656E20526F742E00487273002050726542
:1054A000737320274F6B2720746F2073617665001C
:1054B000204368616E676573206F7220616E7900AA
:1054C0004F74686572206B657920746F206469730E
:1054D0006361726400534156494E472E2E2E00538D
:1054E00041564544205355434345535346554C4C30
:1054F000592121004368616E6765732044697363B5
:06550000617264656400A5
:107E0000112484B714BE81FFF0D085E080938100F7
:107E100082E08093C00088E18093C10086E0809377
:107E2000C20080E18093C4008EE0C9D0259A86E02C
:107E300020E33CEF91E0309385002093840096BBD3
:107E4000B09BFECF1D9AA8958150A9F7CC24DD24C4
:107E500088248394B5E0AB2EA1E19A2EF3E0BF2EE7
:107E6000A2D0813461F49FD0082FAFD0023811F036
:107E7000013811F484E001C083E08DD089C08234E0
:107E800011F484E103C0853419F485E0A6D080C0E4
:107E9000853579F488D0E82EFF2485D0082F10E0AE
:107EA000102F00270E291F29000F111F8ED06801E7
:107EB0006FC0863521F484E090D080E0DECF843638
:107EC00009F040C070D06FD0082F6DD080E0C81688
:107ED00080E7D80618F4F601B7BEE895C0E0D1E017
:107EE00062D089930C17E1F7F0E0CF16F0E7DF06D8
:107EF00018F0F601B7BEE89568D007B600FCFDCFD4
:107F0000A601A0E0B1E02C9130E011968C91119780
:107F100090E0982F8827822B932B1296FA010C0160
:107F200087BEE89511244E5F5F4FF1E0A038BF0790
:107F300051F7F601A7BEE89507B600FCFDCF97BE46
:107F4000E89526C08437B1F42ED02DD0F82E2BD052
:107F50003CD0F601EF2C8F010F5F1F4F84911BD097
:107F6000EA94F801C1F70894C11CD11CFA94CF0C13
:107F7000D11C0EC0853739F428D08EE10CD085E9AC
:107F80000AD08FE07ACF813511F488E018D01DD067
:107F900080E101D065CF982F8091C00085FFFCCF94
:107FA0009093C60008958091C00087FFFCCF809118
:107FB000C00084FD01C0A8958091C6000895E0E648
:107FC000F0E098E1908380830895EDDF803219F02E
:107FD00088E0F5DFFFCF84E1DECF1F93182FE3DFCA
:107FE0001150E9F7F2DF1F91089580E0E8DFEE27F6
:047FF000FF270994CA
:027FFE00040479
:00000001FF
